:020000040800F2
:10000000F8180120ED700008E9020008EB02000872
:10001000EF020008F3020008F702000800000000E9
:10002000000000000000000000000000FB020008CB
:10003000FD02000800000000FF02000801030008A4
:1000400007710008077100080771000823630008A2
:1000500007710008077100080771000807710008A0
:100060000771000807710008077100080771000890
:100070000771000807710008077100080771000880
:100080000771000807710008077100080771000870
:100090000771000807710008077100080771000860
:1000A0000771000807710008077100080771000850
:1000B000077100088D6000080771000807710008CB
:1000C0000771000807710008077100080771000830
:1000D00007710008516500080771000807710008E2
:1000E0000771000805630008077100080771000820
:1000F0000771000807710008077100080771000800
:1001000007710008077100080771000807710008EF
:1001100007710008077100080771000807710008DF
:1001200007710008077100080771000807710008CF
:1001300007710008077100080771000807710008BF
:1001400007710008077100080771000807710008AF
:10015000077100080771000807710008077100089F
:10016000077100080771000807710008077100088F
:10017000077100080771000807710008077100087F
:10018000077100080771000800F002F800F067F836
:100190000AA090E8000C82448344AAF10107DA45E2
:1001A00001D100F05CF8AFF2090EBAE80F0013F0CD
:1001B000010F18BFFB1A43F001031847D0DD0400FC
:1001C000F0DD04000A444FF0000C10F8013B13F07E
:1001D000070408BF10F8014B1D1108BF10F8015BA0
:1001E000641E05D010F8016B641E01F8016BF9D193
:1001F00013F0080F1EBF10F8014BAD1C0C1B09D1EA
:100200006D1E58BF01F801CBFAD505E014F8016B5B
:1002100001F8016B6D1EF9D59142D6D370470000ED
:100220000023002400250026103A28BF78C1FBD8FF
:10023000520728BF30C148BF0B60704764293EF0A9
:10024000418378293EF07A8373293EF04B85002064
:1002500070471FB53FF09BFA1FBD10B510BD3EF0B3
:100260007BFD1146FFF7F5FF00F008F83EF099FD21
:1002700003B4FFF7F2FF03BC06F0F0F84FF4A06000
:1002800006F054FFA82006F067F84FF4165006F069
:10029000F2F800F03FF903F097FC05F069FF42F235
:1002A000CF01092005F0C6FE0DF022FA09F092FFF9
:1002B00009F0EDFF06F0E3FE10E0052006F0AEF8D1
:1002C00031F036F905F0FAFE0549002009F042F94F
:1002D0000449002009F0D8F906F08FF9EDE7000095
:1002E000D0000020D4000020704700BFFEE700BF10
:1002F000FEE700BFFEE700BFFEE7704770477047AC
:10030000704700000CB5002001900090764800680E
:1003100040F480307449086000BF7348006800F4FE
:10032000003000900198401C0190009818B9019885
:10033000B0F5A04FF1D16C48006800F4003010B166
:100340000120009001E0002000900098012846D193
:1003500065484030006840F0805063494031086093
:100360006248006840F44040604908605E480830D8
:1003700000685D49083108600846006840F40040A4
:1003800008600846006840F4A05008605848091FFB
:100390000860081F006840F08070091F086000BFF7
:1003A0005148006800F000700028F9D040F2057054
:1003B000504908604C480830006820F003004A4962
:1003C000083108600846006840F00200086000BF7D
:1003D00045480830006800F00C000828F8D10CBD32
:1003E00010B54548006840F47000434908603E4835
:1003F000006840F001003C49086000203A4908319B
:100400000860394800683D490840374908603C4861
:10041000091D0860081F006820F48020091F08607B
:10042000002031490C310860FFF76CFF4FF000608D
:1004300031498039086010BD70B5002000220223C8
:1004400000240221284D08352D6805F00C0020B14C
:10045000042806D0082834D107E02A4D2A4E3560FA
:1004600033E02A4D284E35602FE01F4D2D1D2D689D
:10047000C5F380541C4D2D1D2D6805F03F0154B16E
:10048000224DB5FBF1F5184E361D3668C6F38816B9
:1004900005FB06F209E01B4DB5FBF1F5124E361DCA
:1004A0003668C6F3881605FB06F20F4D2D1D2D6824
:1004B000C5F301456D1C6B00B2FBF3F5124E3560C0
:1004C00003E0104D104E356000BF00BF064D0835EB
:1004D0002D68C5F303150E4E705D0B4D2D68C5409C
:1004E000094E356070BD00000038024000700040C9
:1004F00008544007003C024088ED00E0FFFFF6FE94
:10050000103000240024F4000000002000127A00C3
:10051000040000201CB50121202007F07FFC4FF4CF
:10052000C060009001208DF8040000208DF80600C6
:1005300003208DF8050001208DF8070069460D485D
:1005400006F0EAFE4FF4C0610A4806F061FF1CBDE8
:1005500010B54FF4C061074806F05CFF10BD10B540
:100560004FF4C061034806F053FF10BD7047704759
:10057000704700000014024001B5BDF80000009073
:10058000BDF80000FE49088008BD01B5BDF80000B7
:100590000090BDF80000FA49891C088008BD08B524
:1005A000F748801C00880090BDF8000008BDF44AA0
:1005B00010804FF0D842A2F88010704710B5044662
:1005C0002046FFF7D9FF052005F0E0FEFFF7E7FF23
:1005D00010BDEC480089EA4908807047E849891C49
:1005E0000880704730B5014601F01F04C1F3451380
:1005F000CA0AE50205EB43151544A8B230BD00BF99
:10060000011EA0F10102D0B2FAD1704710B5024626
:100610000C46DC48808841F66311884247D1D948AE
:100620008079A8B9D7480088401E801A82B2D5497F
:100630004889FFF7A1FF0020FFF7A7FF0020FFF781
:10064000A4FF1012FFF7A1FFD0B2FFF79EFF16E044
:10065000CC494889FFF790FF1012FFF796FFD0B200
:10066000FFF793FFC7490988491EC1F30F20FFF721
:100670008CFFC4490978491EC8B2FFF786FFC149FB
:100680008889FFF779FF2012FFF77FFFE0B2FFF7BD
:100690007CFFBC494988491EC1F30F20FFF775FF55
:1006A000B8498978491EC8B2FFF76FFF3AE0B548EC
:1006B000808845F21051884220D1B2494889FFF71D
:1006C0005BFF1012FFF761FFAE494989491C88B2F0
:1006D000FFF752FFD0B2FFF758FFAA498889FFF70A
:1006E0004BFF2012FFF751FFA6498989491C88B2A8
:1006F000FFF742FFE0B2FFF748FF13E0A149488946
:10070000FFF73AFF1012FFF740FFD0B2FFF73DFFAF
:100710009C498889FFF730FF2012FFF736FFE0B2CF
:10072000FFF733FF10BD2DE9F04105460E460024CA
:100730000027A04693480088A84203DD91484088DE
:10074000B04202DC0020BDE8F08131462846FFF7C8
:100750005DFF8C48808845F21051884204D14FF4E7
:100760003850FFF709FF02E02E20FFF705FFFFF7E3
:1007700016FF04468348808841F66311884201D100
:100780002046E0E7FFF70BFF0446FFF708FF80462F
:10079000E7B24FF6FF7000EA0727E012C002B91275
:1007A00040EA411040EAE820CDE700B5754880886E
:1007B00045F21051884204D14FF42450FFF7DCFE7B
:1007C00002E02920FFF7D8FE00BD00B56D48808803
:1007D00045F21051884204D14FF42050FFF7CCFE6F
:1007E00002E02820FFF7C8FE00BDF0B50546002452
:1007F000002764488079012805D16248808841F645
:100800006311884208D15F488079F0B95D488088DB
:1008100041F66311884218D1082D15D2DFE805F0A2
:100820000406080A0C0E101206250DE007250BE041
:10083000042509E0052507E0012505E0002503E082
:10084000032501E0022500BF00BF082D1CD2DFE810
:1008500005F00406090C0F12151800BF14E044F04F
:10086000800411E044F040040EE044F0C0040BE0CA
:1008700044F0200408E044F0600405E044F0A004E3
:1008800002E044F0E00400BF00BF3E48808845F22B
:100890001051884202D14FF4585700E036273948AA
:1008A000808849F24131884205D03648808847F235
:1008B0008971884201D144F0080421463846FFF787
:1008C00076FE3048808841F6631188421DD004F0DE
:1008D000200068B12B4800882A494988884214DAE8
:1008E00028480688408827490880084646800CE04A
:1008F0002448008823494988884206DD2148068823
:10090000408820490880084646801E48808845F275
:100910001051884257D11B494889FFF72DFE00200E
:10092000FFF733FE17494989491C88B2FFF724FEB7
:100930000020FFF72AFE13494989891C88B2FFF776
:100940001BFE10490988491EC1F30F20FFF71DFE49
:100950000C494989C91C88B2FFF70EFE094909787C
:10096000491EC8B2FFF711FE06498889FFF704FE49
:100970000020FFF70AFE03498989491C88B203E079
:100980007E00006CF0020020FFF7F6FD0020FFF76C
:10099000FCFDFE498989891C88B2FFF7EDFDFB4902
:1009A0004988491EC1F30F20FFF7EFFDF7498989F8
:1009B000C91C88B2FFF7E0FDF4498978491EC8B226
:1009C000FFF7E3FD2DE0F1494889FFF7D5FD002051
:1009D000FFF7DBFD0020FFF7D8FDEC490988491E31
:1009E000C1F30F20FFF7D1FDE8490978491EC8B2CD
:1009F000FFF7CBFDE5498889FFF7BEFD0020FFF733
:100A0000C4FD0020FFF7C1FDE0494988491EC1F33C
:100A10000F20FFF7BAFDDD498978491EC8B2FFF7FC
:100A2000B4FDF0BD30B504460D4629462046FFF71B
:100A3000EDFDFFF7CEFDD6480088D649088030BDD1
:100A400030B504460D46D148808845F210518842A1
:100A500020D1CE494889FFF78FFD2012FFF795FD81
:100A6000CA494989491C88B2FFF786FDE0B2FFF701
:100A70008CFDC6498889FFF77FFD2812FFF785FDA9
:100A8000C2498989491C88B2FFF776FDE8B2FFF7B1
:100A90007CFD42E0BD48808841F66311884228D140
:100AA000BA48807920B9B9480088401E001B84B23A
:100AB000B6494889FFF760FD2012FFF766FDE0B2F6
:100AC000FFF763FD2012FFF760FDE0B2FFF75DFD69
:100AD000AE498889FFF750FD2812FFF756FDE8B2AE
:100AE000FFF753FD2812FFF750FDE8B2FFF74DFD69
:100AF00013E0A6494889FFF73FFD2012FFF745FDA7
:100B0000E0B2FFF742FDA1498889FFF735FD2812C1
:100B1000FFF73BFDE8B2FFF738FD9C4800899D498F
:100B2000891E08804FF0D840A0F8802030BD70B5F5
:100B30002DED048B0446BE20FFF71EFD0520FFF7B8
:100B400024FD20463EF06CFA41EC190B9FED920B10
:100B500053EC102B3EF0B4FA41EC180B3EF01CFAAB
:100B600085B22846FFF711FD0120FFF70EFDFF209B
:100B7000FFF70BFD0020FFF708FD0020FFF705FD44
:100B8000BDEC048B70BD10B5044680488471002C08
:100B900045D1F0207D4908804FF4A0704880084678
:100BA000808845F21051884210D14FF43050774977
:100BB00008814FF4285048814FF42C5088814FF41D
:100BC000F07008804FF4487048801AE06F488088C1
:100BD00041F6631188420DD12C206C4908812B20ED
:100BE00048812A2088814FF4F07008804FF44870C3
:100BF000488006E02C20654908812A2048812B2066
:100C000088816248808845F2103188424CD14FF487
:100C1000A0705E4908804FF4F070488044E04FF4C3
:100C2000A0705A490880F02048800846808845F224
:100C30001051884210D14FF43050544908814FF47C
:100C4000285048814FF42C5088814FF44870088018
:100C50004FF4F07048801AE04C48808841F66311E8
:100C600088420DD12C20494908812A2048812B2017
:100C700088814FF4487008804FF4F070488006E097
:100C80002C20424908812A2048812B2088813F4816
:100C9000808845F21031884206D14FF4F0703B490C
:100CA00008804FF4A07048800020FFF79EFD10BD23
:100CB0002DE9F04104460D461E46A018401E87B29D
:100CC000A819401E1FFA80F83048808841F6631149
:100CD000884231D12D48807901282DD02B480088B9
:100CE000801A001B84B2A819401E86B22749488981
:100CF000FFF742FC2012FFF748FCE0B2FFF745FC8B
:100D0000A118491EC1F30F20FFF73FFCA118491E8F
:100D1000C8B2FFF73AFC1D498889FFF72DFC28125D
:100D2000FFF733FCE8B2FFF730FC3012FFF72DFC81
:100D3000F0B2FFF72AFC79E01448808845F21051A0
:100D4000884251D111494889FFF716FC2012FFF75C
:100D50001CFC0E494989491C88B2FFF70DFCE0B222
:100D6000FFF713FC09494989891C88B2FFF704FC85
:100D70003812FFF70AFC05494989C91C88B2FFF7F8
:100D8000FBFBF8B2FFF701FC004909E0F00200208C
:100D9000140000208000006C66666666666604408B
:100DA0008889FFF7E9FB2812FFF7EFFBFD498989E6
:100DB000491C88B2FFF7E0FBE8B2FFF7E6FBF94910
:100DC0008989891C88B2FFF7D7FB4FEA2820FFF7F3
:100DD000DCFBF4498989C91C88B2FFF7CDFB08F018
:100DE000FF00FFF7D2FB21E0EE494889FFF7C4FB83
:100DF0002012FFF7CAFBE0B2FFF7C7FB3812FFF77C
:100E0000C4FBF8B2FFF7C1FBE6498889FFF7B4FBE2
:100E10002812FFF7BAFBE8B2FFF7B7FB4FEA28202A
:100E2000FFF7B3FB08F0FF00FFF7AFFBBDE8F08171
:100E300070B504460026DB480588408845430021FC
:100E40000846FFF7E3FBFFF7C4FB00BF02E0D6480C
:100E50000480761CAE42FAD370BD00B5A1B000206C
:100E6000209001217A2006F0D9FF0121084607F0E1
:100E70000DF84FF400401E9001208DF87C000020FA
:100E80008DF87E0002208DF87D0001208DF87F0016
:100E90001EA9C64806F040FA4CF233701E9002209C
:100EA0008DF87C0000208DF87E0003208DF87D00F9
:100EB00001208DF87F001EA9BD4806F02DFA4FF6DF
:100EC00080701E9002208DF87C0000208DF87E003E
:100ED00003208DF87D0001208DF87F001EA9B54804
:100EE00006F01AFA4FF480501E9002208DF87C0014
:100EF00000208DF87E0003208DF87D0001208DF804
:100F00007F001EA9AC4806F007FA4FF480501E90EF
:100F100002208DF87C0000208DF87E0003208DF8E3
:100F20007D0001208DF87F001EA9A44806F0F4F989
:100F30000C2200219E4806F07AFA0C2201219C48DE
:100F400006F075FA0C220421994806F070FA0C227A
:100F50000521974806F06BFA0C220821944806F008
:100F600066FA0C220921924806F061FA0C220A2145
:100F70008F4806F05CFA0C220E218D4806F057FAD5
:100F80000C220F218A4806F052FA0C2207218948C8
:100F900006F04DFA0C220821864806F048FA0C2289
:100FA0000921844806F043FA0C220A21814806F000
:100FB0003EFA0C220B217F4806F039FA0C2211462A
:100FC0007C4806F034FA0C220D217A4806F02FFAFC
:100FD0000C220E21774806F02AFA0C220F217548C0
:100FE00006F025FA0C221146734806F020FA0C226E
:100FF0001146724806F01BFA0F2008900020099055
:101000003C200A9000200B900C900D900E9009202F
:101010000190002002900820039000200490059089
:101020000690079006200F9000201090119010203D
:1010300012900020139015901490169017904FF472
:1010400080501890002019904FF480401A90002092
:101050001B9008A81C9001A81D900FA806F03BFA51
:101060000121062006F0C2FA322005F0D7F9D3207C
:10107000FFF782FAFFF793FA4A498880FFF78FFA61
:1010800048498880FFF78BFA46498880084680885F
:101090004FF6FF7101EA002042498880FFF77FFA8E
:1010A0004049898808433F4988800846808849F23A
:1010B0004131884275D00420FFF75EFAFFF76FFADE
:1010C00038498880FFF76BFA36498880FFF767FA5E
:1010D00034498880084680884FF6FF7101EA002075
:1010E00030498880FFF75BFA2E49898808432D49EB
:1010F00088800846808848F25251884203D147F2DE
:101100008970284988802748808847F289718842F9
:10111000D0D0D420FFF730FAFFF741FA2149888078
:10112000FFF73DFA1F498880FFF739FA1D4988808B
:10113000084680884FF6FF7101EA0020194988802F
:10114000FFF72DFA17498988084316498880084611
:10115000808845F21031884279D055214FF4704093
:10116000FFF725FAAA214FF20100FFF720FA5221DA
:101170004FF20200FFF71BFA08214FF20300FFF7BE
:1011800016FA01214FF20400FFF711FA4FF445401F
:10119000FFF7F2F9FFF703FA0249888008468088D2
:1011A0000EE054E0F00200208000006C00040240D9
:1011B000000C0240001002400014024000180240DF
:1011C0004FF6FF7101EA0020FE4988804CF2015081
:1011D000FFF7D2F9FFF7E3F9FA4989880843F9499B
:1011E0008880052005F01AF9F6488088B0F5004F90
:1011F00003D145F21050F3498880F248808845F2C7
:101200001051884223D0A120FFF7B6F9FFF7C7F9A4
:10121000EC498880FFF7C3F9EA498880084680884E
:101220004FF6FF7101EA0020E6498880FFF7B7F921
:10123000E44989880843E34988800846808845F264
:101240006171884203D141F66310DE498880DD4830
:10125000808849F24131884217D0DA48808847F2C5
:101260008971884211D0D748808845F21031884270
:101270000BD0D448808845F21051884205D0D1481F
:10128000808841F6631188422CD1CF48006820F055
:101290000F004FF02041C1F81C010846D0F81C0196
:1012A00020F47060C1F81C010846D0F81C0140F021
:1012B0000300C1F81C01C348808847F28971884245
:1012C00008D1C148006840F440704FF02041C1F897
:1012D0001C0107E0BC48006840F400704FF020415A
:1012E000C1F81C01B748808849F2413188427CD15D
:1012F000CF20FFF741F90020FFF747F9C120FFF7A2
:1013000044F93020FFF741F9ED20FFF735F964206B
:10131000FFF73BF90320FFF738F91220FFF735F903
:101320008120FFF732F9E820FFF726F98520FFF743
:101330002CF91020FFF729F97A20FFF726F9CB20A6
:10134000FFF71AF93920FFF720F92C20FFF71DF9D4
:101350000020FFF71AF93420FFF717F90220FFF7F2
:1013600014F9F720FFF708F92020FFF70EF9EA201B
:10137000FFF702F90020FFF708F90020FFF705F951
:10138000C020FFF7F9F81B20FFF7FFF8C120FFF797
:10139000F3F80120FFF7F9F8C520FFF7EDF830204A
:1013A000FFF7F3F83020FFF7F0F8C720FFF7E4F875
:1013B000B720FFF7EAF83620FFF7DEF84820FFF7FE
:1013C000E4F83A20FFF7D8F85520FFF7DEF8B1200F
:1013D000FFF7D2F80020FFF7D8F81A20FFF7D5F86A
:1013E000B620FFF7C9F80A2000E099E0FFF7CDF832
:1013F000A220FFF7CAF8F220FFF7BEF80020FFF79F
:10140000C4F82620FFF7B8F80120FFF7BEF8E02067
:10141000FFF7B2F80F20FFF7B8F82A20FFF7B5F86A
:101420002820FFF7B2F80820FFF7AFF80E20FFF7EB
:10143000ACF80820FFF7A9F85420FFF7A6F8A92078
:10144000FFF7A3F84320FFF7A0F80A20FFF79DF865
:101450000F20FFF79AF80020FFF797F80020FFF71A
:1014600094F80020FFF791F80020FFF78EF8E120B4
:10147000FFF782F80020FFF788F81520FFF785F8BE
:101480001720FFF782F80720FFF77FF81120FFF7FA
:101490007CF80620FFF779F82B20FFF776F8562026
:1014A000FFF773F83C20FFF770F80520FFF76DF8A1
:1014B0001020FFF76AF80F20FFF767F83F20FFF7CB
:1014C00064F83F20FFF761F80F20FFF75EF82B204C
:1014D000FFF752F80020FFF758F80020FFF755F803
:1014E0000120FFF752F83F20FFF74FF82A20FFF7BF
:1014F00043F80020FFF749F80020FFF746F80020E6
:10150000FFF743F8EF20FFF740F81120FFF734F81A
:10151000782004F083FF2920FFF72EF802F0ABB803
:101520002848808847F2897188427DD11120FFF7D1
:1015300023F8782004F072FF3620FFF71DF8002012
:10154000FFF723F83A20FFF717F80520FFF71DF8FB
:10155000B220FFF711F80C20FFF717F80C20FFF767
:1015600014F80020FFF711F83320FFF70EF83320AE
:10157000FFF70BF8B720FEF7FFFF3520FFF705F860
:10158000BB20FEF7F9FF3220FEF7FFFFC020FEF779
:10159000F3FF0C20FEF7F9FFC220FEF7EDFF01205C
:1015A000FEF7F3FFC320FEF7E7FF1020FEF7EDFF85
:1015B000C420FEF7E1FF2020FEF7E7FFC620FEF77C
:1015C000DBFF03E0F00200201C0100A00F20FEF76B
:1015D000DCFFD020FEF7D0FFA420FEF7D6FFA1202D
:1015E000FEF7D3FFE020FEF7C7FFD020FEF7CDFFC8
:1015F0000020FEF7CAFF0220FEF7C7FF0720FEF714
:10160000C4FF0A20FEF7C1FF2820FEF7BEFF3220EC
:10161000FEF7BBFF4420FEF7B8FF4220FEF7B5FF00
:101620000620FEF7B2FF00E05AE00E20FEF7ADFF05
:101630001220FEF7AAFF1420FEF7A7FF1720FEF7DF
:10164000A4FFE120FEF798FFD020FEF79EFF0020C8
:10165000FEF79BFF0220FEF798FF0720FEF795FF9D
:101660000A20FEF792FF2820FEF78FFF3120FEF7B9
:101670008CFF5420FEF789FF4720FEF786FF0E20DF
:10168000FEF783FF1C20FEF780FF1720FEF77DFF8B
:101690001B20FEF77AFF1E20FEF777FF2A20FEF7B9
:1016A0006BFF0020FEF771FF0020FEF76EFF0020A9
:1016B000FEF76BFFEF20FEF768FF2B20FEF75CFFC5
:1016C0000020FEF762FF0020FEF75FFF0120FEF71B
:1016D0005CFF3F20FEF759FF2920FEF74DFF1DE775
:1016E000FE48808845F21031884240F07C87ED202A
:1016F000FEF742FF0120FEF748FFFE20FEF745FF00
:10170000EE20FEF739FFDE20FEF73FFF2120FEF737
:101710003CFFF120FEF730FF0120FEF736FFDF200F
:10172000FEF72AFF1020FEF730FFC420FEF724FF4B
:101730008F20FEF72AFFC620FEF71EFF0020FEF7CF
:1017400024FFE220FEF721FFE220FEF71EFFE22049
:10175000FEF71BFFBF20FEF70FFFAA20FEF715FFC5
:10176000B020FEF709FF0D20FEF70FFF0020FEF767
:101770000CFF0D20FEF709FF0020FEF706FF1120E9
:10178000FEF703FF0020FEF700FF1920FEF7FDFE25
:101790000020FEF7FAFE2120FEF7F7FE0020FEF7FC
:1017A000F4FE2D20FEF7F1FE0020FEF7EEFE3D20B8
:1017B000FEF7EBFE0020FEF7E8FE5D20FEF7E5FEFB
:1017C0000020FEF7E2FE5D20FEF7DFFE0020FEF7C0
:1017D000DCFEB120FEF7D0FE8020FEF7D6FE002012
:1017E000FEF7D3FE8B20FEF7D0FE0020FEF7CDFEE5
:1017F0009620FEF7CAFE0020FEF7C7FEB220FEF7D5
:10180000BBFE0020FEF7C1FE0020FEF7BEFE022058
:10181000FEF7BBFE0020FEF7B8FE0320FEF7B5FE84
:101820000020FEF7B2FEB320FEF7A6FE0020FEF772
:10183000ACFE0020FEF7A9FE0020FEF7A6FE002069
:10184000FEF7A3FE0020FEF7A0FE0020FEF79DFE9F
:101850000020FEF79AFE0020FEF797FE0020FEF71C
:1018600094FE0020FEF791FE0020FEF78EFE002081
:10187000FEF78BFE0020FEF788FE0020FEF785FEB7
:101880000020FEF782FE0020FEF77FFE0020FEF71C
:101890007CFE0020FEF779FE0020FEF776FE002099
:1018A000FEF773FE0020FEF770FE0020FEF76DFECF
:1018B0000020FEF76AFE0020FEF767FEB420FEF768
:1018C0005BFE8B20FEF761FE0020FEF75EFE962099
:1018D000FEF75BFE0020FEF758FEA120FEF755FE46
:1018E0000020FEF752FEB520FEF746FE0220FEF76E
:1018F0004CFE0020FEF749FE0320FEF746FE0020C6
:10190000FEF743FE0420FEF740FE0020FEF73DFEFA
:10191000B620FEF731FE0020FEF737FE0020FEF76E
:1019200034FEB720FEF728FE0020FEF72EFE002032
:10193000FEF72BFE3F20FEF728FE0020FEF725FED7
:101940005E20FEF722FE0020FEF71FFE6420FEF759
:101950001CFE0020FEF719FE8C20FEF716FE00206C
:10196000FEF713FEAC20FEF710FE0020FEF70DFE82
:10197000DC20FEF70AFE0020FEF707FE7020FEF7CF
:1019800004FE0020FEF701FE9020FEF7FEFD002081
:10199000FEF7FBFDEB20FEF7F8FD0020FEF7F5FD5E
:1019A000DC20FEF7F2FD0020FEF7EFFDB820FEF789
:1019B000E3FD0020FEF7E9FD0020FEF7E6FD002034
:1019C000FEF7E3FD0020FEF7E0FD0020FEF7DDFD61
:1019D0000020FEF7DAFD0020FEF7D7FD0020FEF71D
:1019E000D4FDBA20FEF7C8FD2420FEF7CEFD00206E
:1019F000FEF7CBFD0020FEF7C8FD0020FEF7C5FD79
:101A0000C120FEF7B9FD2020FEF7BFFD0020FEF744
:101A1000BCFD5420FEF7B9FD0020FEF7B6FDFF2007
:101A2000FEF7B3FD0020FEF7B0FDC220FEF7A4FDD7
:101A30000A20FEF7AAFD0020FEF7A7FD0420FEF70E
:101A4000A4FD0020FEF7A1FDC320FEF795FD3C207C
:101A5000FEF79BFD0020FEF798FD3A20FEF795FD6E
:101A60000020FEF792FD3920FEF78FFD0020FEF7E3
:101A70008CFD3720FEF789FD0020FEF786FD3C2017
:101A8000FEF783FD0020FEF780FD3620FEF77DFD8A
:101A90000020FEF77AFD3220FEF777FD0020FEF7EA
:101AA00074FD2F20FEF771FD0020FEF76EFD2C2047
:101AB000FEF76BFD0020FEF768FD2920FEF765FDAF
:101AC0000020FEF762FD2620FEF75FFD0020FEF7F6
:101AD0005CFD2420FEF759FD002001E0F00200200B
:101AE000FEF753FD2420FEF750FD0020FEF74DFDCC
:101AF0002320FEF74AFD0020FEF747FD3C20FEF7BD
:101B000044FD0020FEF741FD3620FEF73EFD00209B
:101B1000FEF73BFD3220FEF738FD0020FEF735FDD5
:101B20002F20FEF732FD0020FEF72FFD2C20FEF7C0
:101B30002CFD0020FEF729FD2920FEF726FD0020C0
:101B4000FEF723FD2620FEF720FD0020FEF71DFDF9
:101B50002420FEF71AFD0020FEF717FD2420FEF7D3
:101B600014FD0020FEF711FD2320FEF70EFD0020DE
:101B7000FEF70BFDC420FEF7FFFC6220FEF705FD1B
:101B80000020FEF702FD0520FEF7FFFC0020FEF717
:101B9000FCFC8420FEF7F9FC0020FEF7F6FCF020A8
:101BA000FEF7F3FC0020FEF7F0FC1820FEF7EDFC3A
:101BB0000020FEF7EAFCA420FEF7E7FC0020FEF779
:101BC000E4FC1820FEF7E1FC0020FEF7DEFC5020CC
:101BD000FEF7DBFC0020FEF7D8FC0C20FEF7D5FC5E
:101BE0000020FEF7D2FC1720FEF7CFFC0020FEF706
:101BF000CCFC9520FEF7C9FC0020FEF7C6FCF320C4
:101C0000FEF7C3FC0020FEF7C0FCE620FEF7BDFC9B
:101C10000020FEF7BAFCC520FEF7AEFC3220FEF72E
:101C2000B4FC0020FEF7B1FC4420FEF7AEFC00201F
:101C3000FEF7ABFC6520FEF7A8FC0020FEF7A5FC34
:101C40007620FEF7A2FC0020FEF79FFC8820FEF71E
:101C50009CFC0020FEF799FCC620FEF78DFC20209E
:101C6000FEF793FC0020FEF790FC1720FEF78DFC9A
:101C70000020FEF78AFC0120FEF787FC0020FEF71B
:101C800084FCC720FEF778FC0020FEF77EFC0020D5
:101C9000FEF77BFC0020FEF778FC0020FEF775FCC9
:101CA000C820FEF769FC0020FEF76FFC0020FEF75D
:101CB0006CFC0020FEF769FC0020FEF766FCC920E2
:101CC000FEF75AFC0020FEF760FC0020FEF75DFCEA
:101CD0000020FEF75AFC0020FEF757FC0020FEF71C
:101CE00054FC0020FEF751FC0020FEF74EFC0020C3
:101CF000FEF74BFC0020FEF748FC0020FEF745FCF9
:101D00000020FEF742FC0020FEF73FFC0020FEF71B
:101D10003CFC0020FEF739FC0020FEF736FC0020DA
:101D2000FEF733FCE020FEF727FC1620FEF72DFC23
:101D30000020FEF72AFC1C20FEF727FC0020FEF7FF
:101D400024FC2120FEF721FC0020FEF71EFC36209B
:101D5000FEF71BFC0020FEF718FC4620FEF715FCE2
:101D60000020FEF712FC5220FEF70FFC0020FEF7C9
:101D70000CFC6420FEF709FC0020FEF706FC7A202C
:101D8000FEF703FC0020FEF700FC8B20FEF7FDFBB6
:101D90000020FEF7FAFB9920FEF7F7FB0020FEF784
:101DA000F4FBA820FEF7F1FB0020FEF7EEFBB920C4
:101DB000FEF7EBFB0020FEF7E8FBC420FEF7E5FB97
:101DC0000020FEF7E2FBCA20FEF7DFFB0020FEF753
:101DD000DCFBD220FEF7D9FB0020FEF7D6FBD92092
:101DE000FEF7D3FB0020FEF7D0FBE020FEF7CDFB93
:101DF0000020FEF7CAFBF320FEF7C7FB0020FEF72A
:101E0000C4FBE120FEF7B8FB1620FEF7BEFB002066
:101E1000FEF7BBFB1C20FEF7B8FB0020FEF7B5FB6E
:101E20002220FEF7B2FB0020FEF7AFFB3620FEF7C4
:101E3000ACFB0020FEF7A9FB4520FEF7A6FB002027
:101E4000FEF7A3FB5220FEF7A0FB0020FEF79DFB50
:101E50006420FEF79AFB0020FEF797FB7A20FEF73E
:101E600094FB0020FEF791FB8B20FEF78EFB0020F9
:101E7000FEF78BFB9920FEF788FB0020FEF785FB21
:101E8000A820FEF782FB0020FEF77FFBB920FEF7BB
:101E90007CFB0020FEF779FBC420FEF776FB0020D8
:101EA000FEF773FBCA20FEF770FB0020FEF76DFB08
:101EB000D220FEF76AFB0020FEF767FBD820FEF772
:101EC00064FB0020FEF761FBE020FEF75EFB0020D4
:101ED000FEF75BFBF320FEF758FB0020FEF755FBF7
:101EE000E220FEF749FB0520FEF74FFB0020FEF73E
:101EF0004CFB0B20FEF749FB0020FEF746FB1B20A6
:101F0000FEF743FB0020FEF740FB3420FEF73DFBCD
:101F10000020FEF73AFB4420FEF737FB0020FEF7D7
:101F200034FB4F20FEF731FB0020FEF72EFB612033
:101F3000FEF72BFB0020FEF728FB7920FEF725FBA0
:101F40000020FEF722FB8820FEF71FFB0020FEF793
:101F50001CFB9720FEF719FB0020FEF716FBA620BE
:101F6000FEF713FB0020FEF710FBB720FEF70DFB7A
:101F70000020FEF70AFBC220FEF707FB0020FEF759
:101F800004FBC720FEF701FB0020FEF7FEFAD1207C
:101F9000FEF7FBFA0020FEF7F8FAD620FEF7F5FA76
:101FA0000020FEF7F2FADD20FEF7EFFA0020FEF740
:101FB000ECFAF320FEF7E9FA0020FEF7E6FAE32058
:101FC000FEF7DAFA0520FEF7E0FA0020FEF7DDFA68
:101FD0000A20FEF7DAFA0020FEF7D7FA1C20FEF7F7
:101FE000D4FA0020FEF7D1FA3320FEF7CEFA002013
:101FF000FEF7CBFA4420FEF7C8FA0020FEF7C5FA38
:102000005020FEF7C2FA0020FEF7BFFA6220FEF76A
:10201000BCFA0020FEF7B9FA7820FEF7B6FA0020E5
:10202000FEF7B3FA8820FEF7B0FA0020FEF7ADFA0B
:102030009720FEF7AAFA0020FEF7A7FAA620FEF7DF
:10204000A4FA0020FEF7A1FAB720FEF79EFA0020BE
:10205000FEF79BFAC220FEF798FA0020FEF795FAE9
:10206000C720FEF792FA0020FEF78FFAD120FEF784
:102070008CFA0020FEF789FAD520FEF786FA0020B8
:10208000FEF783FADD20FEF780FA0020FEF77DFAE6
:10209000F320FEF77AFA0020FEF777FAE420FEF745
:1020A0006BFA0120FEF771FA0020FEF76EFA0120AC
:1020B000FEF76BFA0020FEF768FA0220FEF765FAD9
:1020C0000020FEF762FA2A20FEF75FFA0020FEF7F2
:1020D0005CFA3C20FEF759FA0020FEF756FA4B2036
:1020E000FEF753FA0020FEF750FA5D20FEF74DFA96
:1020F0000020FEF74AFA7420FEF747FA0020FEF7A8
:1021000044FA8420FEF741FA0020FEF73EFA9320BD
:10211000FEF73BFA0020FEF738FAA220FEF735FA68
:102120000020FEF732FAB320FEF72FFA0020FEF768
:102130002CFABE20FEF729FA0020FEF726FAC4206A
:10214000FEF723FA0020FEF720FACD20FEF71DFA55
:102150000020FEF71AFAD320FEF717FA0020FEF748
:1021600014FADD20FEF711FA0020FEF70EFAF32034
:10217000FEF70BFA0020FEF708FAE520FEF7FCF95F
:102180000020FEF702FA0020FEF7FFF90020FEF71C
:10219000FCF90020FEF7F9F90220FEF7F6F900201D
:1021A000FEF7F3F92920FEF7F0F90020FEF7EDF92C
:1021B0003C20FEF7EAF90020FEF7E7F94B20FEF796
:1021C000E4F90020FEF7E1F95D20FEF7DEF90020DA
:1021D000FEF7DBF97420FEF7D8F90020FEF7D5F9F9
:1021E0008420FEF7D2F90020FEF7CFF99320FEF706
:1021F000CCF90020FEF7C9F9A220FEF7C6F90020AD
:10220000FEF7C3F9B320FEF7C0F90020FEF7BDF9D1
:10221000BE20FEF7BAF90020FEF7B7F9C420FEF79A
:10222000B4F90020FEF7B1F9CD20FEF7AEF9002099
:10223000FEF7ABF9D320FEF7A8F90020FEF7A5F9C9
:10224000DC20FEF7A2F90020FEF79FF9F320FEF74D
:102250009CF90020FEF799F9E620FEF78DF9112090
:10226000FEF793F90020FEF790F93420FEF78DF980
:102270000020FEF78AF95620FEF787F90020FEF7C6
:1022800084F97620FEF781F90020FEF77EF97720A9
:10229000FEF77BF90020FEF778F96620FEF775F966
:1022A0000020FEF772F98820FEF76FF90020FEF794
:1022B0006CF99920FEF769F90020FEF766F9BB205A
:1022C000FEF763F90020FEF760F99920FEF75DF94B
:1022D0000020FEF75AF96620FEF757F90020FEF7B6
:1022E00054F95520FEF751F90020FEF74EF955201C
:1022F000FEF74BF90020FEF748F94520FEF745F9B7
:102300000020FEF742F94320FEF73FF90020FEF7D8
:102310003CF94420FEF739F90020FEF736F9E720B2
:10232000FEF72AF93220FEF730F90020FEF72DF9EA
:102330005520FEF72AF90020FEF727F97620FEF750
:1023400024F90020FEF721F96620FEF71EF900208F
:10235000FEF71BF96720FEF718F90020FEF715F9C4
:102360006720FEF712F90020FEF70FF98720FEF72D
:102370000CF90020FEF709F99920FEF706F9002074
:10238000FEF703F9BB20FEF700F90020FEF7FDF889
:102390009920FEF7FAF80020FEF7F7F87720FEF70D
:1023A000F4F80020FEF7F1F84420FEF7EEF80020E4
:1023B000FEF7EBF85620FEF7E8F80020FEF7E5F808
:1023C0002320FEF7E2F80020FEF7DFF83320FEF7C7
:1023D000DCF80020FEF7D9F84520FEF7D6F80020FB
:1023E000FEF7D3F8E820FEF7C7F80020FEF7CDF897
:1023F0000020FEF7CAF89920FEF7C7F80020FEF784
:10240000C4F88720FEF7C1F80020FEF7BEF8882048
:10241000FEF7BBF80020FEF7B8F87720FEF7B5F816
:102420000020FEF7B2F86620FEF7AFF80020FEF7B6
:10243000ACF88820FEF7A9F80020FEF7A6F8AA203D
:10244000FEF7A3F80020FEF7A0F8BB20FEF79DF8EA
:102450000020FEF79AF89920FEF797F80020FEF783
:1024600094F86620FEF791F80020FEF78EF85520CC
:10247000FEF78BF80020FEF788F85520FEF785F868
:102480000020FEF782F84420FEF77FF80020FEF7D8
:102490007CF84420FEF779F80020FEF776F8552006
:1024A000FEF773F80020FEF770F8E920FEF764F8F5
:1024B000AA20FEF76AF80020FEF767F80020FEF772
:1024C00064F80020FEF761F80020FEF755F8AA2016
:1024D000FEF75BF8CF20FEF74FF80020FEF755F827
:1024E0000020FEF752F80020FEF74FF80020FEF71C
:1024F0004CF80020FEF749F80020FEF746F80020CF
:10250000FEF743F80020FEF740F80020FEF73DF804
:102510000020FEF73AF80020FEF737F80020FEF71B
:1025200034F80020FEF731F80020FEF72EF80020E6
:10253000FEF72BF80020FEF728F80020FEF725F81C
:10254000F020FEF719F80020FEF71FF85020FEF7E4
:102550001CF80020FEF719F80020FEF716F80020FE
:10256000FEF713F8F320FEF707F80020FEF70DF84A
:10257000F920FEF701F80620FEF707F81020FEF715
:1025800004F82920FEF701F80020FDF7FEFF3A20AD
:10259000FDF7F2FF5520FDF7F8FF1120FDF7ECFFE6
:1025A000642003F03BFF2920FDF7E6FF3520FDF70F
:1025B000E3FF0020FDF7E9FF5120FDF7DDFFFF20DD
:1025C000FDF7E3FF5320FDF7D7FF2C20FDF7DDFFDC
:1025D0005520FDF7D1FF8220FDF7D7FF2C20FDF716
:1025E000CBFF01F048B8FE48808845F21051884280
:1025F0007ED155214FF47040FDF7D9FFAA214FF24B
:102600000100FDF7D4FF52214FF20200FDF7CFFF8A
:1026100008214FF20300FDF7CAFF01214FF2040029
:10262000FDF7C5FF0D214FF43040FDF7C0FF0D2130
:102630004BF20100FDF7BBFF0D214BF20200FDF74D
:10264000B6FF34214FF43640FDF7B1FF34214BF291
:102650000160FDF7ACFF34214BF20260FDF7A7FFEC
:102660000D214FF43140FDF7A2FF0D214BF2011077
:10267000FDF79DFF0D214BF20210FDF798FF34216D
:102680004FF43740FDF793FF34214BF20170FDF713
:102690008EFF34214BF20270FDF789FF00214FF4C9
:1026A0003240FDF784FF00214BF20120FDF77FFF50
:1026B00000214BF20220FDF77AFF24214FF438402D
:1026C000FDF775FF24214BF60100FDF770FF242173
:1026D0004BF60200FDF76BFF01214FF43F40FDF781
:1026E00066FF0F214FF43340FDF761FF0F2100E03B
:1026F000FEE34BF20130FDF75AFF0F214BF202309F
:10270000FDF755FF34214FF43940FDF750FF3421D8
:102710004BF60110FDF74BFF34214BF60210FDF78D
:1027200046FF08214FF43540FDF741FF08214BF2E9
:102730000150FDF73CFF08214BF20250FDF737FF37
:1027400003214FF44240FDF732FF24214FF43A4079
:10275000FDF72DFF24214BF60120FDF728FF242152
:102760004BF60220FDF723FF00214FF43C40FDF71C
:102770001EFF78214BF60140FDF719FF00214BF6B3
:102780000240FDF714FF00214FF43D40FDF70FFF1D
:1027900078214BF60150FDF70AFF00214BF602505D
:1027A000FDF705FF00214FF43E40FDF700FF6421D7
:1027B0004BF60160FDF7FBFE00214FF45140FDF7A1
:1027C000F6FE33214DF20110FDF7F1FE00214DF22E
:1027D0000210FDF7ECFE34214DF20310FDF7E7FE89
:1027E00000214DF20410FDF7E2FE3A214DF20510F2
:1027F000FDF7DDFE00214DF20610FDF7D8FE4A215F
:102800004DF20710FDF7D3FE00214DF20810FDF741
:10281000CEFE5C214DF20910FDF7C9FE00214DF2FC
:102820000A10FDF7C4FE81214DF20B10FDF7BFFE2B
:1028300000214DF20C10FDF7BAFEA6214DF20D104D
:10284000FDF7B5FE00214DF20E10FDF7B0FEE521BB
:102850004DF20F10FDF7ABFE01214DF21010FDF708
:10286000A6FE13214DF21110FDF7A1FE01214DF23C
:102870001210FDF79CFE54214DF21310FDF797FE48
:1028800001214DF21410FDF792FE82214DF2151038
:10289000FDF78DFE01214DF21610FDF788FECA21CD
:1028A0004DF21710FDF783FE02214DF21810FDF7CF
:1028B0007EFE00214DF21910FDF779FE02214DF246
:1028C0001A10FDF774FE01214DF21B10FDF76FFE8B
:1028D00002214DF21C10FDF76AFE34214DF21D104D
:1028E000FDF765FE02214DF21E10FDF760FE672127
:1028F0004DF21F10FDF75BFE02214DF22010FDF797
:1029000056FE84214DF22110FDF751FE02214DF2B9
:102910002210FDF74CFEA4214DF22310FDF747FED7
:1029200002214DF22410FDF742FEB7214DF2251091
:10293000FDF73DFE02214DF22610FDF738FECF21B6
:102940004DF22710FDF733FE02214DF22810FDF75E
:102950002EFEDE214DF22910FDF729FE02214DF257
:102960002A10FDF724FEF2214DF22B10FDF71FFE79
:1029700002214DF22C10FDF71AFEFE214DF22D1012
:10298000FDF715FE03214DF22E10FDF710FE10216C
:102990004DF22F10FDF70BFE03214DF23010FDF725
:1029A00006FE33214DF23110FDF701FE03214DF2F9
:1029B0003210FDF7FCFD6D214DF23310FDF7F7FDF0
:1029C00000214FF45240FDF7F2FD33214DF201207A
:1029D000FDF7EDFD00214DF20220FDF7E8FD01E0DD
:1029E000F002002034214DF20320FDF7E0FD00212C
:1029F0004DF20420FDF7DBFD3A214DF20520FDF7F5
:102A0000D6FD00214DF20620FDF7D1FD4A214DF201
:102A10000720FDF7CCFD00214DF20820FDF7C7FD92
:102A20005C214DF20920FDF7C2FD00214DF20A2084
:102A3000FDF7BDFD81214DF20B20FDF7B8FD002112
:102A40004DF20C20FDF7B3FDA6214DF20D20FDF750
:102A5000AEFD00214DF20E20FDF7A9FDE5214DF25E
:102A60000F20FDF7A4FD01214DF21020FDF79FFD81
:102A700013214DF21120FDF79AFD01214DF2122094
:102A8000FDF795FD54214DF21320FDF790FD012136
:102A90004DF21420FDF78BFD82214DF21520FDF73C
:102AA00086FD01214DF21620FDF781FDCA214DF270
:102AB0001720FDF77CFD02214DF21820FDF777FD70
:102AC00000214DF21920FDF772FD02214DF21A206E
:102AD000FDF76DFD01214DF21B20FDF768FD022180
:102AE0004DF21C20FDF763FD34214DF21D20FDF752
:102AF0005EFD02214DF21E20FDF759FD67214DF2CA
:102B00001F20FDF754FD02214DF22020FDF74FFD5F
:102B100084214DF22120FDF74AFD02214DF22220B1
:102B2000FDF745FDA4214DF22320FDF740FD0221D4
:102B30004DF22420FDF73BFDB7214DF22520FDF796
:102B400036FD02214DF22620FDF731FDCF214DF259
:102B50002720FDF72CFD02214DF22820FDF727FD4F
:102B6000DE214DF22920FDF722FD02214DF22A201F
:102B7000FDF71DFDF2214DF22B20FDF718FD02217E
:102B80004DF22C20FDF713FDFE214DF22D20FDF717
:102B90000EFD03214DF22E20FDF709FD10214DF20F
:102BA0002F20FDF704FD03214DF23020FDF7FFFC3F
:102BB00033214DF23120FDF7FAFC03214DF2322092
:102BC000FDF7F5FC6D214DF23320FDF7F0FC0021FF
:102BD0004FF45340FDF7EBFC33214DF20130FDF78C
:102BE000E6FC00214DF20230FDF7E1FC34214DF20C
:102BF0000330FDF7DCFC00214DF20430FDF7D7FC7B
:102C00003A214DF20530FDF7D2FC00214DF206309D
:102C1000FDF7CDFC4A214DF20730FDF7C8FC00213D
:102C20004DF20830FDF7C3FC5C214DF20930FDF791
:102C3000BEFC00214DF20A30FDF7B9FC81214DF2B6
:102C40000B30FDF7B4FC00214DF20C30FDF7AFFC6A
:102C5000A6214DF20D30FDF7AAFC00214DF20E30F9
:102C6000FDF7A5FCE5214DF20F30FDF7A0FC012199
:102C70004DF21030FDF79BFC13214DF21130FDF7A2
:102C800096FC01214DF21230FDF791FC54214DF2DA
:102C90001330FDF78CFC01214DF21430FDF787FC59
:102CA00082214DF21530FDF782FC01214DF21630E4
:102CB000FDF77DFCCA214DF21730FDF778FC0221AB
:102CC0004DF21830FDF773FC00214DF21930FDF77D
:102CD0006EFC02214DF21A30FDF769FC01214DF224
:102CE0001B30FDF764FC02214DF21C30FDF75FFC48
:102CF00034214DF21D30FDF75AFC02214DF21E30F9
:102D0000FDF755FC67214DF21F30FDF750FC022105
:102D10004DF22030FDF74BFC84214DF22130FDF7C0
:102D200046FC02214DF22230FDF741FCA4214DF278
:102D30002330FDF73CFC02214DF22430FDF737FC37
:102D4000B7214DF22530FDF732FC02214DF226303D
:102D5000FDF72DFCCF214DF22730FDF728FC022195
:102D60004DF22830FDF723FCDE214DF22930FDF72E
:102D70001EFC02214DF22A30FDF719FCF2214DF222
:102D80002B30FDF714FC02214DF22C30FDF70FFC27
:102D9000FE214DF22D30FDF70AFC03214DF22E30BD
:102DA000FDF705FC10214DF22F30FDF700FC03214B
:102DB0004DF23030FDF7FBFB33214DF23130FDF7A2
:102DC000F6FB03214DF23230FDF7F1FB6D214DF2A0
:102DD0003330FDF7ECFB00214FF45440FDF7E7FBE7
:102DE00033214DF20140FDF7E2FB00214DF202409C
:102DF000FDF7DDFB34214DF20340FDF7D8FB002148
:102E00004DF20440FDF7D3FB3A214DF20540FDF7AA
:102E1000CEFB00214DF20640FDF7C9FB4A214DF2E1
:102E20000740FDF7C4FB00214DF20840FDF7BFFB52
:102E30005C214DF20940FDF7BAFB00214DF20A403A
:102E4000FDF7B5FB81214DF20B40FDF7B0FB0021F2
:102E50004DF20C40FDF7ABFBA6214DF20D40FDF706
:102E6000A6FB00214DF20E40FDF7A1FBE5214DF23E
:102E70000F40FDF79CFB01214DF21040FDF797FB41
:102E800013214DF21140FDF792FB01214DF212404A
:102E9000FDF78DFB54214DF21340FDF788FB012116
:102EA0004DF21440FDF783FB82214DF21540FDF7F2
:102EB0007EFB01214DF21640FDF779FBCA214DF250
:102EC0001740FDF774FB02214DF21840FDF76FFB30
:102ED00000214DF21940FDF76AFB02214DF21A4024
:102EE000FDF765FB01214DF21B40FDF760FB00E0A3
:102EF00003E302214DF21C40FDF759FB34214DF252
:102F00001D40FDF754FB02214DF21E40FDF74FFB23
:102F100067214DF21F40FDF74AFB02214DF2204090
:102F2000FDF745FB84214DF22140FDF740FB0221D6
:102F30004DF22240FDF73BFBA4214DF22340FDF76B
:102F400036FB02214DF22440FDF731FBB7214DF253
:102F50002540FDF72CFB02214DF22640FDF727FB13
:102F6000CF214DF22740FDF722FB02214DF22840F0
:102F7000FDF71DFBDE214DF22940FDF718FB022174
:102F80004DF22A40FDF713FBF2214DF22B40FDF7E5
:102F90000EFB02214DF22C40FDF709FBFE214DF204
:102FA0002D40FDF704FB03214DF22E40FDF7FFFA03
:102FB00010214DF22F40FDF7FAFA03214DF2304077
:102FC000FDF7F5FA33214DF23140FDF7F0FA032118
:102FD0004DF23240FDF7EBFA6D214DF23340FDF733
:102FE000E6FA00214FF45540FDF7E1FA33214DF2A6
:102FF0000150FDF7DCFA00214DF20250FDF7D7FA3F
:1030000034214DF20350FDF7D2FA00214DF2045065
:10301000FDF7CDFA3A214DF20550FDF7C8FA00212F
:103020004DF20650FDF7C3FA4A214DF20750FDF765
:10303000BEFA00214DF20850FDF7B9FA5C214DF2BD
:103040000950FDF7B4FA00214DF20A50FDF7AFFA2E
:1030500081214DF20B50FDF7AAFA00214DF20C50E0
:10306000FDF7A5FAA6214DF20D50FDF7A0FA0021BB
:103070004DF20E50FDF79BFAE5214DF20F50FDF792
:1030800096FA01214DF21050FDF791FA13214DF2FD
:103090001150FDF78CFA01214DF21250FDF787FA1D
:1030A00054214DF21350FDF782FA01214DF21450D4
:1030B000FDF77DFA82214DF21550FDF778FA0121D6
:1030C0004DF21650FDF773FACA214DF21750FDF775
:1030D0006EFA02214DF21850FDF769FA00214DF207
:1030E0001950FDF764FA02214DF21A50FDF75FFA0C
:1030F00001214DF21B50FDF75AFA02214DF21C50EE
:10310000FDF755FA34214DF21D50FDF750FA02211A
:103110004DF21E50FDF74BFA67214DF21F50FDF79F
:1031200046FA02214DF22050FDF741FA84214DF27A
:103130002150FDF73CFA02214DF22250FDF737FAFB
:10314000A4214DF22350FDF732FA02214DF2245012
:10315000FDF72DFAB7214DF22550FDF728FA02218F
:103160004DF22650FDF723FACF214DF22750FDF7FF
:103170001EFA02214DF22850FDF719FADE214DF218
:103180002950FDF714FA02214DF22A50FDF70FFAEB
:10319000F2214DF22B50FDF70AFA02214DF22C508C
:1031A000FDF705FAFE214DF22D50FDF700FA03213F
:1031B0004DF22E50FDF7FBF910214DF22F50FDF787
:1031C000F6F903214DF23050FDF7F1F933214DF2BC
:1031D0003150FDF7ECF903214DF23250FDF7E7F9DC
:1031E0006D214DF23350FDF7E2F900214FF45640C6
:1031F000FDF7DDF933214DF20160FDF7D8F900212B
:103200004DF20260FDF7D3F934214DF20360FDF772
:10321000CEF900214DF20460FDF7C9F93A214DF2D3
:103220000560FDF7C4F900214DF20660FDF7BFF916
:103230004A214DF20760FDF7BAF900214DF208600E
:10324000FDF7B5F95C214DF20960FDF7B0F90021F9
:103250004DF20A60FDF7ABF981214DF20B60FDF7ED
:10326000A6F900214DF20C60FDF7A1F9A6214DF25F
:103270000D60FDF79CF900214DF20E60FDF797F906
:10328000E5214DF20F60FDF792F901214DF210603A
:10329000FDF78DF913214DF21160FDF788F9012139
:1032A0004DF21260FDF783F954214DF21360FDF7E2
:1032B0007EF901214DF21460FDF779F982214DF27A
:1032C0001560FDF774F901214DF21660FDF76FF9F5
:1032D000CA214DF21760FDF76AF902214DF218601C
:1032E000FDF765F900214DF21960FDF760F9022143
:1032F0004DF21A60FDF75BF901214DF21B60FDF7FD
:1033000056F902214DF21C60FDF751F934214DF2BE
:103310001D60FDF74CF902214DF21E60FDF747F9E3
:1033200067214DF21F60FDF742F902214DF2206046
:10333000FDF73DF984214DF22160FDF738F90221B6
:103340004DF22260FDF733F9A4214DF22360FDF721
:103350002EF902214DF22460FDF729F9B7214DF233
:103360002560FDF724F902214DF22660FDF71FF9D3
:10337000CF214DF22760FDF71AF902214DF22860A6
:10338000FDF715F9DE214DF22960FDF710F9022154
:103390004DF22A60FDF70BF9F2214DF22B60FDF79B
:1033A00006F902214DF22C60FDF701F9FE214DF2E4
:1033B0002D60FDF7FCF803214DF22E60FDF7F7F8C4
:1033C00010214DF22F60FDF7F2F803214DF230602D
:1033D000FDF7EDF833214DF23160FDF7E8F80321F8
:1033E0004DF23260FDF7E3F86D214DF23360FDF7E9
:1033F000DEF855214FF47040FDF7D9F8AA214FF2BD
:103400000100FDF7D4F852214FF20200FDF7CFF88A
:1034100008214FF20300FDF7CAF800214FF2040023
:10342000FDF7C5F8CC214FF43140FDF7C0F800217D
:103430004BF20110FDF7BBF805214FF43640FDF7C4
:10344000B6F870214FF43740FDF7B1F870214BF218
:103450000170FDF7ACF801214FF43840FDF7A7F8F3
:1034600003214BF60100FDF7A2F803214BF6020001
:10347000FDF79DF803214BF60300FDF798F80221B4
:103480004FF43C40FDF793F800214BF60140FDF767
:103490008EF800214BF60240FDF789F8D0214FF459
:1034A0004940FDF784F802214CF60110FDF77FF842
:1034B00050214CF60210FDF77AF850214CF603101B
:1034C000FDF775F850214CF60410FDF770F8002157
:1034D0004FF45450FDF76BF855214FF46850FDF749
:1034E00066F84FF48850FDF747F8782002F04EFF59
:1034F0004FF42450FDF740F8BDE0FE48808841F6C7
:1035000063118842F8D1E220FDF736F81D20FDF75F
:103510003CF80220FDF739F80420FDF736F8642066
:1035200002F034FFE020FDF727F80120FDF72DF829
:103530000A2002F073FFE020FDF71EF80320FDF7DC
:1035400024F80C2002F06AFF0120FDF715F80A208C
:1035500002F064FFE620FDF70FF82F20FDF715F8C5
:10356000FF20FDF712F8FF20FDF70FF8B020FDF760
:1035700003F82020FDF709F80020FDF706F80320E6
:10358000FDF703F840F21F30FCF7FFFF0120FCF7C6
:10359000FCFF40F2DF10FCF7F8FF0020FCF7F5FF1E
:1035A000B420FCF7E9FF0420FCF7EFFF40F21F40D6
:1035B000FCF7EBFF0020FCF7E8FF2E20FCF7E5FF0F
:1035C0000020FCF7E2FF0020FCF7DFFF0020FCF703
:1035D000DCFF0020FCF7D9FFB620FCF7CDFF02206E
:1035E000FCF7D3FF4FF40370FCF7CFFF0020FCF78C
:1035F000CCFF1720FCF7C9FF1520FCF7C6FF002001
:10360000FCF7C3FF0020FCF7C0FFF020FCF7B4FF7D
:103610000320FCF7BAFF2920FCF7AEFFD020FCF70F
:10362000ABFF0020FCF7B1FFBE20FCF7A5FF052093
:10363000FCF7ABFFFE20FCF7A8FF0120FCF7A5FF7D
:103640000020FCF7A2FF0020FCF79FFF0020FCF702
:103650009CFFB820FCF790FF0320FCF796FF0120A9
:10366000FCF793FFBA20FCF787FF0120FCF78DFFE2
:103670006420FDF75CFA0020FDF785FA01209E49E1
:1036800008604FF6FF70FDF7D3FB21B000BD2DE9B8
:10369000F04F05460E4617469846DDF824A04FF039
:1036A000000B781B401C1FFA80FB344614E02146B7
:1036B0002846FCF7ABFFFCF78CFF4FF0000907E052
:1036C0004FF0D840A0F880A009F101001FFA80F95E
:1036D000D945F5DB601C84B24445E8DDBDE8F08FD8
:1036E0002DE9F84F07460D4690469946DDF828B07B
:1036F000A8EB0700401C1FFA80FAA9EB0500401C4C
:1037000080B20090002414E0281981B23846FCF7FA
:103710007DFFFCF75EFF002607E004FB0A603BF834
:10372000100076490880701C86B25645F5DB601C97
:1037300084B200988442E7DBBDE8F88F2DE9FF4FA3
:1037400084B081468A460020039002900698A0EB40
:1037500009050798A0EB0A06CDF80490CDF800A063
:10376000002D01DD012705E00DB9002702E04FF033
:10377000FF376D42002E02DD4FF0010806E016B95A
:103780004FF0000802E04FF0FF387642B54201DD0D
:103790002C4600E034464FF0000B21E0009A91B235
:1037A000019A90B2FDF73EF90398284403900298DD
:1037B000304402900398A04205DD0398001B03905B
:1037C0000198384401900298A04205DD0298001B40
:1037D00002900098404400900BF101001FFA80FB1A
:1037E000601C8345DADD08B0BDE8F08FF0B5044613
:1037F0000D4616461F462B46324629462046FFF701
:103800009DFF3B46224629462046FFF797FF3B4651
:10381000324639462046FFF791FF3B46324629465D
:103820003046FFF78BFFF0BD2DE9F04306460F460B
:103830009046002445460320A0EB48093CE07A1B53
:1038400091B2321990B2FDF7EDF83A1B91B27219AC
:1038500090B2FDF7E7F83A1991B2721990B2FDF7FC
:10386000E1F87A1991B2321990B2FDF7DBF87A19C2
:1038700091B2321B90B2FDF7D5F83A1991B2721B92
:1038800090B2FDF7CFF87A1B91B2321B90B2FDF7E0
:10389000C9F83A1B91B2721B90B2FDF7C3F8641CD1
:1038A000B9F1000F03DAA000801D814404E0601B21
:1038B00080000A3081446D1EAC42C0DDBDE8F0835B
:1038C0002DE9F84F80460E4617461C46B346204663
:1038D000E31704EB5373DB1021464FEAE47C04EB5F
:1038E0005C7C4FEAEC0CA4EBCC0CBCF1000F0AD0D2
:1038F00006E00000F0020020BC8240428000006C24
:103900004FF0010C01E04FF0000C6344224604EB41
:10391000D27C4FEA6C0C03FB0CF3DBB20093A7F1F3
:103920002000C7B2002556E00C2C07D107EB47005A
:103930009F4901EB800010F8059013E0102C05D191
:103940009C4800EB071010F805900BE0182C07D1ED
:1039500007EBC700984901EB800010F8059001E0E3
:10396000BDE8F88F4FF0000A2FE009F0800030B179
:103970009248028831464046FDF762F807E00A980F
:1039800028B98F48028831464046FDF759F84FEA7A
:1039900049604FEA1069701C86B28A484088B0427C
:1039A00000DCDDE7A6EB0B00A0420AD15E4608F181
:1039B00001001FFA80F883480088404500DCCFE70B
:1039C00006E00AF1010000F0FF0ABAF1080FCCDBB3
:1039D00000BF681CC5B200988542A5DB00BFBFE7E9
:1039E00010B50246012000E050430B1EA1F1010476
:1039F000E1B2F9D110BD2DE9FF4F81B007469146E4
:103A00001E460E9D4FF0000A002439E0301B401E78
:103A1000C1B20A20FFF7E4FFB9FBF0F00A21B0FBC6
:103A2000F1F201FB1208BAF1000F16D1701EA0428C
:103A300013DDB8F1000F0ED10020AB4605EBDB71B2
:103A4000491001FB0471009088B22B462022029994
:103A5000FFF736FF12E04FF0010A0020AB4605EBFE
:103A6000DB71491001FB0471009088B208F130014C
:103A7000CAB22B460299FFF723FF00BF601CC4B2F5
:103A8000B442C3DB05B0BDE8F08F2DE9FF4F82B033
:103A9000064692461F46DDE90F48002001900025AA
:103AA0004DE0781B401EC1B20A20FFF799FFBAFB18
:103AB000F0F00A21B0FBF1F201FB1209019850BBB2
:103AC000781EA84227DDB9F1000F22D108F080004E
:103AD00078B108F00100A34604EBDB71491001FB4B
:103AE0000561009088B2234630220399FFF7E8FE73
:103AF0000EE008F00100A34604EBDB71491001FB66
:103B00000561009088B2234620220399FFF7D8FE72
:103B100013E00120019008F00100A34604EBDB71E3
:103B2000491001FB0561009088B209F13001CAB269
:103B300023460399FFF7C4FE00BF681CC5B2BD420F
:103B4000AFDB06B0BDE8F08F2DE9F84704460D461F
:103B500090469946DDE9096704F0FF0A08EB040086
:103B60001FFA80F809EB05001FFA80F916E04445BA
:103B700002DB5446A81985B24D4500DB14E0002055
:103B800000903A78334629462046FFF799FE3046A2
:103B900006EBD07104EB61018CB27F1C38787E2873
:103BA00002DC38782028E2DA00BFBDE8F8870000A0
:103BB00098F703080CFC0308FC010408140000201B
:103BC00016000020F00200201CB50121112004F095
:103BD00025F91020009000208DF8040003208DF8B6
:103BE000050002208DF807006946234803F094FB86
:103BF0000120009002208DF8070069461F4803F05D
:103C00008BFB1CBD10B5044614B101201C49087083
:103C10001B48007800B31021174803F0DFFB012890
:103C200005D00121154803F0D9FB012814D10A2041
:103C300002F0F4FB00201249087010210E4803F036
:103C4000CDFB012800D110BD01210C4803F0C6FBBB
:103C500001280ED10420F6E71021074803F0BEFB2F
:103C600038B90121054803F0B9FB10B90120044916
:103C700008700020E7E7000000100240000002404A
:103C8000180000201CB50121022004F0C7F84FF4F1
:103C90004070009001208DF8040000208DF806008F
:103CA00003208DF8050001208DF80700694689483A
:103CB00003F032FB0120884908608849C1F8A4025A
:103CC0001CBD10B58348006820F44020814908607D
:103CD0000846006840F48020086001207E49091DE4
:103CE00008607E49C1F8A002042002F04FFB0020CA
:103CF0007949091D0860042002F048FB002077493B
:103D0000C1F8A00210BD10B57248006820F4402030
:103D1000704908600846006840F480200860002070
:103D20006D4908606D49C1F8A402042002F02EFB21
:103D30000120694908606949C1F8A402042002F021
:103D400025FB10BD10B500246248006820F4402017
:103D50006049086008460068086001205E49091D46
:103D6000086002F013FB01205C49C1F8A00202F0D8
:103D70000DFB07E0601CC4B2FA2C03DDFFF7C3FFA4
:103D8000012010BD54487C3800680028F2D1524907
:103D9000086000BFF5E710B500204F4908604D48A6
:103DA000006820F440204B4908600846006840F451
:103DB0008020086000204949C1F8A402022002F0D6
:103DC000E5FA012044490860022002F0DFFA0020F1
:103DD0004249C1F8A00210BD10B500203E4908605C
:103DE0003C48006820F440203A49086008460068D2
:103DF00040F48020086001203849C1F8A402022064
:103E000002F0C4FA012034490860022002F0BEFA30
:103E100000203249C1F8A00210BD70B504462D48FB
:103E2000006820F440202B4908600846006840F4F0
:103E300080200860002028490860002517E0E0097C
:103E40002549091D08606006040E022002F09EFA52
:103E500001202249C1F8A002022002F097FA0020B6
:103E60001D490860022002F091FA681CC5B2082DB5
:103E7000E5DB70BD70B5054600241648006820F4E7
:103E8000402014490860084600680860002616E0D3
:103E9000002011490860022002F078FA01200F4941
:103EA000C1F8A0026006040E0B487C38006808B117
:103EB000601CC4B2012002F069FA701CC6B2082E60
:103EC000E6DB15B9FFF788FF01E0FFF764FF204646
:103ED00070BD000000040240A082404200804042C9
:103EE00010B5FFF7CFFE10BD70B504460026FFF7F2
:103EF000E8FE2546E11704EB11610912A02202EB4E
:103F00004101C8B2FFF789FFFFF71CFFE11704EB7F
:103F100011610912A4EB0121C8B2FFF77EFFFFF780
:103F200011FFFFF7CEFEA120FFF777FFFFF70AFF93
:103F30000020FFF79FFF0646FFF7E5FE304670BD05
:103F400070B504460E46FFF7BCFE2546E11704EBAC
:103F500011610912A02202EB4101C8B2FFF75DFF17
:103F6000FFF7F0FEE11704EB11610912A4EB012148
:103F7000C8B2FFF752FFFFF7E5FE3046FFF74DFFEF
:103F8000FFF7E0FEFFF7BFFE0A2002F047FA70BD20
:103F90002DE9F04105460E461746002409E0E200EF
:103FA00026FA02F2D1B22A1990B2FFF7C9FF601CBB
:103FB000C4B2BC42F3DBBDE8F0812DE9F041074615
:103FC0000C460026002509E036023919491B491E16
:103FD00088B2FFF789FF0644681CC5B2A542F3DB2F
:103FE0003046BDE8F08110B5FF20FFF77DFF0446A5
:103FF000552C01D1002010BD5521FF20FFF7A0FF57
:10400000FF20FFF771FF0446552C01D10020F2E795
:104010000120F0E770B506460C46154608E030462C
:10402000721C96B2FFF760FF04F8010B681E85B2A0
:10403000002DF4D170BD70B505460C46164606E05D
:1040400021782846FFF77CFF681C85B2641C301E6F
:10405000A6F101018EB2F3D170BD000010B50220AF
:1040600002F094F910BD1CB50121222003F0D6FE08
:10407000012000908DF804008DF806008DF80700EF
:104080006946624803F048F94FF40060009001204F
:104090008DF8040069465E4803F03EF91CBD10B57A
:1040A00001205C4908605C49C1F88002FFF7D6FF37
:1040B000002058490860FFF7D1FF00205649C1F899
:1040C0008002FFF7CBFF10BD10B5002051490860FA
:1040D000FFF7C4FF01205049C1F88002FFF7BEFF7F
:1040E00001204C490860FFF7B9FF10BD70B50024EE
:1040F0000025012047490860FFF7B0FF012046492D
:10410000C1F88002FFF7AAFF09E0601CC4B2FA2CD4
:1041100003DDFFF7D9FF012506E0FFF79FFF3D48CC
:10412000803800680028F0D100BF00203B490860BB
:10413000FFF794FF284670BD10B500203549086090
:10414000FFF78CFF01203449C1F88002FFF786FF9A
:10415000002032490860FFF781FF01203049C1F893
:10416000AC02FFF77BFF10BD10B5012029490860A4
:10417000FFF774FF01202849C1F88002FFF76EFFA6
:10418000002026490860FFF769FF10BD70B504469E
:10419000002511E0E0091F490860FFF75FFF0120DB
:1041A0001D49C1F88002FFF759FF00201B49086034
:1041B0006006040E681CC5B2082DEBDB0120154912
:1041C000086070BD70B505460024002613E0600647
:1041D000040E012011490860FFF740FF1048D0F895
:1041E0002C0208B1601CC4B200200C490860FFF723
:1041F00035FF701CC6B2082EE9DB15B9FFF7B4FF16
:1042000001E0FFF799FF204670BD00000004024066
:1042100000140240AC824242008040428082404210
:10422000008042422DE9F04104460E4617464FF009
:104230000008FFF734FF2820FFF7A8FFFFF756FF1D
:104240002012FFF7A3FFFFF751FFE0B2FFF79EFF39
:10425000FFF74CFF00250BE0705DFFF797FFFFF7BE
:1042600045FF8046B8F1000F00D003E0681CC5B2DE
:10427000BD42F1DB00BFFFF727FF4046BDE8F081FC
:1042800038B50546002400208DF800008DF8015057
:1042900000BF09E09DF80000DB49095D0844C0B299
:1042A0008DF80000601CC4B2B82CF3D39DF8000058
:1042B000C043401CC0B28DF80000B822D24948F279
:1042C0004700FFF7AFFF0222694648F2FF00FFF701
:1042D000A9FF002038BD2DE9F04105460F461646DE
:1042E000FFF7DDFE2820FFF751FFFFF7FFFE281242
:1042F000FFF74CFFFFF7FAFEE8B2FFF747FFFFF7C3
:10430000F5FEFFF7CCFE2920FFF740FFFFF7EEFE9A
:1043100000240BE0711EA14201D0012100E0002128
:104320000846FFF74FFF3855601CC4B2B442F1DBBA
:10433000FFF7CAFEBDE8F0811FB50121062003F09A
:104340006DFD0220009000208DF804008DF806001D
:1043500003208DF8050001208DF807006946AB4861
:1043600002F0DAFF4FF40050009001208DF80400B5
:104370006946A74802F0D0FFFFF775FE0020A54967
:1043800008600A2002F04AF80120A349C1F8B402EB
:104390000A2002F043F80220009001208DF804006A
:1043A00000208DF807006946984802F0B5FF6420A8
:1043B00002F034F8042202A948F24010FFF78BFF04
:1043C00000208DF80C0002A994A03AF011FA96A1F1
:1043D00002A83AF0CDFB48BB02208DF8080001226C
:1043E00002A948F24000FFF71DFF012202A948F28E
:1043F0004700FFF770FF9DF80800602807DA9DF876
:1044000008108BA03AF0F4F90120FFF739FF0A20D9
:1044100002F004F800208DF80800012202A948F2F9
:104420004000FFF7FFFE002004B010BD0020FBE7B6
:1044300071B583B00024002682480078401C814971
:104440000870084600780A2190FBF1F201FB120087
:1044500018B17C4800780A287EDA012203A948F2C4
:104460004E10FFF738FF00200190012201A948F209
:104470004E10FFF7D7FE9DF80C0000F00F0000284B
:104480006AD09DF80C0000F00F000628E4DA9DF8D1
:104490000C0000F00F01FF208840C0B201906A4874
:1044A00090F820509DF80400C043C0B240F0C00016
:1044B000654981F82000084681898182C18AC183CB
:1044C000002444E0604890F820000121A140084009
:1044D00020B35E4931F81400042202A9FFF7FBFE65
:1044E000594890F8300000F00100C0B19DF8080074
:1044F0009DF8091000EB012081B25348163020F8D6
:1045000014109DF80A009DF80B1000EB0120C0F577
:10451000487081B24C480C3020F8141015E09DF81A
:1045200008009DF8091000EB012081B246480C30CC
:1045300020F814109DF80A009DF80B1000EB0120E4
:1045400081B24148163020F81410601CC4B2052C0A
:10455000B8DB01263C4800E02BE080893C49098813
:10456000884205DC3848C08A3949498888421DDDBF
:104570009DF80C0000F00F0001280ADD3248C089C8
:10458000314988810846008BC88200202D49087077
:104590000FE02D48808A2C4988810846C08BC8824C
:1045A00080200390084680F8205002E00020254932
:1045B00008709DF80C0000F08F00802819D1224867
:1045C00090F8200000F0800038B11F4890F82000DB
:1045D00020F080001C4981F820004FF6FF701A4936
:1045E0008881C882084690F8200000F0E00081F839
:1045F000200014480078F02802DD0A2011490870D4
:10460000304604B070BD0000580F0408000402409A
:1046100000080240B402414200004142435450208D
:1046200049443A25730D0A0039313437000000003F
:1046300044656661756C74205665723A25640D0A8E
:1046400000000000190000202400002010100408C1
:10465000F00200202DE9F04104460E4617464FF0C7
:104660000008FFF71CFDB220FFF790FDFFF73EFDAD
:104670002012FFF78BFDFFF739FDE0B2FFF786FD53
:10468000FFF734FD00250BE0705DFFF77FFDFFF7BE
:104690002DFD8046B8F1000F00D003E0681CC5B2C4
:1046A000BD42F1DB00BFFFF70FFD4046BDE8F081E2
:1046B0002DE9F04105460F461646FFF7F0FCB22003
:1046C000FFF764FDFFF712FD2812FFF75FFDFFF70C
:1046D0000DFDE8B2FFF75AFDFFF708FDFFF7DFFC1D
:1046E000B320FFF753FDFFF701FD00240BE0711E1F
:1046F000A14201D0012100E000210846FFF762FD40
:104700003855601CC4B2B442F1DBFFF7DDFCBDE8F4
:10471000F08138B50446002000900CB18020009054
:10472000012269464FF45060FFF794FF38BD0EB583
:10473000002002900121062003F070FB022000906F
:1047400000208DF804008DF8060003208DF8050088
:1047500001208DF807006946904802F0DDFD4FF416
:104760000050009001208DF8040069468C4802F04A
:10477000D3FDFFF778FC00208A490860642001F02F
:104780004DFE01208849C1F8B402642001F046FEC4
:104790000120FFF7BEFF012202A94FF45060FFF78E
:1047A00087FF9DF8081081A03AF022F89DF80800D4
:1047B000802801D100200EBD0120FCE731B52DED90
:1047C000068B82B0002400257B480078401C7A4983
:1047D0000870084600780A2190FBF1F201FB1200F4
:1047E00018B1754800780A287EDA012208A900204D
:1047F000FFF75EFF9DF8200000F01F00002873D037
:104800009DF8200000F01F0040F0C0006B4981F8C7
:104810002000002486E0694890F820000121A14092
:10482000084000287CD0664931F81400042201A910
:10483000FFF73EFF614890F8300000F00100D0B370
:104840009DF807109DF8062001EB02203AF0D1FBFD
:1048500041EC190B9FED5B0B53EC102B3AF030FC45
:1048600041EC180B3AF098FB81B25448163020F80E
:1048700014109DF805109DF8042001EB02203AF079
:10488000B8FB41EC1A0B9FED510B53EC102B3AF097
:1048900017FC41EC190B9FED4F0B53EC102B3AF02A
:1048A00043FD41EC180B3AF077FB81B243480C30E2
:1048B00020F8141034E0FFE79DF807109DF806205B
:1048C00001EB02203AF095FB41EC190B9FED3D0BFB
:1048D00053EC102B3AF0F4FB41EC180B3AF05CFB74
:1048E00081B236480C3000E02BE020F814109DF81F
:1048F00005109DF8042001EB02203AF07AFB41EC10
:10490000190B9FED320B53EC102B3AF0D9FB41EC15
:10491000180B3AF041FB81B22848163020F81410E9
:10492000601CC4B2052CFFF676AF012523488089B0
:1049300020B92248C08A08B90020089000201E49EA
:1049400008709DF8200000F01F00D0B91B4890F8B7
:10495000200000F0800040B1184890F8200020F0BE
:104960008000164981F820000BE04FF6FF701349D4
:104970008881C882084690F8200000F0E00081F8A5
:1049800020000D480078F02802DD0A200A4908704E
:10499000284602B0BDEC068B38BD00000004024082
:1049A00000080240B40241420000414243545020FA
:1049B00049443A25780D0A001A00002024000020FE
:1049C0001A1004087B14AE47E17AD43FD8817346AD
:1049D00094F6D23F00000000000089402DE9F0412C
:1049E00005460E4617464FF00008FFF758FB7020AB
:1049F000FFF7CCFBFFF77AFBE8B2FFF7C7FBFFF747
:104A000075FB00240BE0305DFFF7C0FBFFF76EFB8A
:104A10008046B8F1000F00D003E0601CC4B2BC4275
:104A2000F1DB00BFFFF750FB4046BDE8F0812DE908
:104A3000F04106460F461546FFF731FB7020FFF7A1
:104A4000A5FBFFF753FBF0B2FFF7A0FBFFF74EFB10
:104A5000FFF725FB7120FFF799FBFFF747FB0024C9
:104A60000BE0691EA14201D0012100E000210846AF
:104A7000FFF7A8FB3855601CC4B2AC42F1DBFFF76E
:104A800023FBBDE8F0811FB50121062003F0C6F924
:104A90000220009000208DF804008DF8060003200D
:104AA0008DF8050001208DF807006946F84802F0EE
:104AB00033FC4FF40050009001208DF8040069464B
:104AC000F44802F029FCFFF7CEFA0020F249086012
:104AD000142001F0A3FC0120F049C1F8B4023220F7
:104AE00001F09CFC00208DF80800012202A9FFF7CC
:104AF00075FF012202A9A420FFF770FF16208DF890
:104B00000800012202A98020FFF768FF0C208DF821
:104B10000800012202A98820FFF760FF022202A9F3
:104B2000A120FFF784FF9DF8080030280DD19DF8E3
:104B30000900032809D19DF809009DF8082000EB21
:104B40000221D7A039F054FE2AE0042202A948F23B
:104B50004010FFF7C0FB00208DF80C0002A9D3A085
:104B600039F046FED4480299016002208DF8080011
:104B7000012202A948F24000FFF754FB012202A9DA
:104B800048F24700FFF7A7FB0A2001F047FC00208E
:104B90008DF80800012202A948F24000FFF742FB0D
:104BA000002004B010BD71B583B000200190002634
:104BB000C2480078401CC1490870084600780A21A4
:104BC00090FBF1F201FB120018B1BC4800780A28F2
:104BD0007DDABBA1B84839F0CBFFD8B9012203A9CF
:104BE00048F24E10FFF777FB9DF80C0000F08000B4
:104BF000A8B19DF80C0000F00F00B2490978884276
:104C00000DDC00200190012201A948F24E10FFF7AF
:104C100009FB04E0012203A90220FFF708FF9DF829
:104C20000C0000F00F00002851D09DF80C0000F09F
:104C30000F00A4490978884249DC9DF80C0000F077
:104C40000F01FF208840C4B29F4890F82050E043F5
:104C5000C0B240F0C0009C4981F82000084682891B
:104C600098480078401E0C3121F810209648C28ADE
:104C700094480078401E0A3121F81020042001F0E9
:104C8000CDFB00200190ABE08F4890F820009DF80C
:104C9000042001219140084000282FD088A1864897
:104CA00039F066FFE8BB89499DF8042031F812000D
:104CB000042202A9FFF70FFB834890F8300000F0B0
:104CC0000100E0B19DF808009DF8091000E0C5E082
:104CD00000EB012081B27C480C309DF8042020F8C4
:104CE00012109DF80A009DF80B1000EB012081B214
:104CF000754816309DF8042020F812106BE09DF8DE
:104D000008009DF8091000EB012081B26E481630B2
:104D10009DF8042020F812109DF80A009DF80B1051
:104D200000E00CE000EB012069490988081A81B213
:104D300065480C309DF8042020F812104BE06549BE
:104D40009DF8042031F81200042202A9FFF76FFE3B
:104D50005D4890F8300000F00100E0B19DF80900D6
:104D60009DF8081001F00F0100EB012056491631A3
:104D70009DF8042021F812009DF80B009DF80A1000
:104D800001F00F0100EB01204F490C319DF8042088
:104D900021F812001FE09DF809009DF8081001F0AD
:104DA0000F0100EB01204A490988081A81B24648E0
:104DB0000C309DF8042020F812109DF80B009DF88F
:104DC0000A1001F00F0100EB01203F4916319DF858
:104DD000042021F812009DF80400401CC0B201908C
:104DE0009DF80400374909788842FFF64DAF012647
:104DF0003548808936490988884205DC3248C08AAE
:104E000033494988884226DD9DF80C0000F00F00E8
:104E100001280ADD2C48C0892B4988810846008B6F
:104E2000C88200202549087018E026480078401EF6
:104E300025490C3131F810000C398881214800785F
:104E4000401E163131F810001639C88280200390B8
:104E500081F8205002E000201849087018A1164877
:104E600039F086FEC0BB9DF80C0000F08F00802852
:104E700061D1154890F8200000F0800068B3124816
:104E800090F8200020F080000F4981F8200052E0C7
:104E90000004024000080240B402414200004142C6
:104EA0004354502049443A25780D0A004354502079
:104EB00049443A25730D0A001B0000202100002000
:104EC0003931310020000020240000202E10040879
:104ED000F0020020241004080DE0FFE74FF6FF70F9
:104EE0001A498881C882084690F8200000F0E00046
:104EF00081F820001FE09DF80C0000F01F00D0B9E1
:104F0000124890F8200000F0800040B10F4890F85F
:104F1000200020F080000D4981F820000BE04FF6C2
:104F2000FF700A498881C882084690F8200000F086
:104F3000E00081F8200006480078F02802DD0A2011
:104F400003490870304604B070BD00002400002002
:104F50002100002070B50446002500BF17E004F0D2
:104F6000800018B10120FE49086002E00020FC49E1
:104F700008606006040E0020FA490860012001F074
:104F800005FA0120F849C1F88002681CC5B2082D55
:104F9000E5DB70BD70B50646002500240020F14910
:104FA0000860F249C1F8AC02F14908603046FFF7E9
:104FB000D1FF062001F0EAF90020EB49C1F8800298
:104FC000012001F0E3F90120E649086001F0DEF973
:104FD0000020E549C1F8800200BF15E04FF6FF70E0
:104FE00000EA44040020DF490860012001F0CEF906
:104FF0000120DD49C1F88002DA487838006808B13C
:10500000601C84B2681CC5B2102DE7DB241101209E
:10501000D7490860204670BD2DE9FE438046002731
:10502000002406E04046FFF7B5FF2DF81400601C91
:1050300084B2052CF6DB002416E0601C85B20FE07C
:105040003DF814003DF81510884207DD3DF8146066
:105050003DF815002DF814002DF81560681C85B278
:10506000052DEDDB601C84B2042CE6DB0027012457
:1050700005E03DF81400384487B2601C84B2042C6B
:10508000F7DB032097FBF0F086B23046BDE8FE83E5
:105090002DE9F04104460D46B6480078FFF7BCFF05
:1050A0000646B5480078FFF7B7FF074626802F80F1
:1050B0000120BDE8F0817FB504460D4602A903A892
:1050C000FFF7E6FF064616B9002004B070BD69463A
:1050D00001A8FFF7DDFF06460EB90020F5E7BDF891
:1050E0000400BDF80C10884206DCBDF80C10BDF8B9
:1050F0000400323081420CDBBDF80C00BDF8041016
:10510000884236DCBDF80410BDF80C003230814214
:105110002FDABDF80000BDF80810884206DCBDF8A3
:105120000810BDF80000323081420CDBBDF80800E9
:10513000BDF8001088421CDCBDF80010BDF8080066
:105140003230814215DABDF80C10BDF80420881801
:1051500000EBD071C1F34F012180BDF80810BDF8FC
:105160000020881800EBD071C1F34F012980012085
:10517000ABE70020A9E770B504460D4616467F4808
:10518000068004F10D018AB2193988B22B462946EE
:10519000FEF7D4FA05F10D0083B2193881B2224628
:1051A0002046FEF7CBFA6A1C91B2621C90B2FBF764
:1051B00039FC6A1C91B2621E90B2FBF733FC6A1E86
:1051C00091B2621C90B2FBF72DFC6A1E91B2621E76
:1051D00090B2FBF727FC062229462046FEF724FB67
:1051E00070BD70B504460D461646644806802946D3
:1051F0002046FBF717FC611C88B22946FBF712FC1E
:10520000681C81B22046FBF70DFC6A1C91B2621C3F
:1052100090B2FBF707FC70BD10B5044651487C38CE
:10522000006800284ED12CB15549A1F10A00FFF7C2
:1052300042FF35E05249A1F10A00FFF73CFF78B385
:105240004F481638B0F92C0000EE100AB8EEC00A2C
:105250004B48163890ED091A808900EE900AF8EE56
:10526000600A01EE200ABCEEC00A10EE100A4449A2
:10527000163988810846B0F92E0000EE100AB8EE03
:10528000C00A084690ED0A1AC08A00EE900AF8EEAD
:10529000600A01EE200ABCEEC00A10EE100AC882B5
:1052A0003748163890F8200000F0800038BBC02046
:1052B0003349163981F82000084681898182C18AE4
:1052C000C1831CE02E48163890F8200000F08000C2
:1052D00050B12B48163890F8200020F08000284963
:1052E000163981F820000AE000212548163881820D
:1052F000C1834FF6FF70224916398881C882204841
:10530000163890F8200000F0800010BD10B51C4841
:10531000163890ED090ADFED1B0A20EE200ABDEEDB
:10532000C00A10EE104A042221462820FEF730FE63
:105330001348163890ED0A0ADFED120A20EE200A13
:10534000BDEEC00A10EE104A042221462C20FEF7C2
:105350001FFE0B481638B0F92C100222302013E043
:10536000AC82424280824042008040420080424201
:10537000B4024142580000205900002014000020CF
:105380003A00002020BCBE4CFEF702FEFE48B0F9F9
:105390002E1002223220FEF7FBFDFB4890F8301061
:1053A0003420FEF7CDFD0A2421463520FEF7C8FD46
:1053B00010BD10B53520FEF797FD04460A2C46D1E6
:1053C00004212820FEF7F9FD044600EE104AB8EE4D
:1053D000C00A5FED140A80EE201AEB4880ED091A2E
:1053E00004212C20FEF7E9FD044600EE104AB8EE39
:1053F000C00A5FED1C0A80EE201AE34880ED0A1A0D
:1054000002213020FEF7D9FD00B2DF498885022154
:105410003220FEF7D2FD00B2DB49C8853420FEF70A
:1054200063FDD94981F83000084690F8300030B16A
:105430009020D6490870D020D549087005E0D020CA
:10544000D24908709020D2490870012010BD002078
:10545000FCE72DE9FC5F04460D4617461E46DDE9D4
:105460000EABDDE90C894FF47840CA490880CAA028
:105470001021CDE90010C94843880288A0212820C6
:10548000FEF762FBC6A01021CDE90010C348438897
:105490000288A0217820FEF757FBC2A01021CDE999
:1054A0000010BE4843880288B4212820FEF74CFB38
:1054B000BDA01021CDE90010B84843880288B4216E
:1054C0007820FEF741FBB9A01021CDE90010B348C8
:1054D00043880288C8212820FEF736FBB4A010219B
:1054E000CDE90010AD4843880288C8217820FEF736
:1054F0002BFBB0A01021CDE90010A84843880288FA
:10550000DC212820FEF720FBABA01021CDE9001004
:10551000A24843880288DC217820FEF715FBA7A06B
:105520001021CDE900109D4843880288F0212820F1
:10553000FEF70AFB102004232246A0210090402001
:10554000FEF759FA102004232A46A021009090204B
:10555000FEF751FA102004233A46B421009040206F
:10556000FEF749FA102004233246B421009090201F
:10557000FEF741FA102004234246C8210090402043
:10558000FEF739FA102004234A46C82100909020E3
:10559000FEF731FA102004235246DC21009040200F
:1055A000FEF729FA102004235A46DC2100909020AF
:1055B000FEF721FA102003230090F0216020109ABA
:1055C000FEF719FABDE8FC9F00B597B000201290D5
:1055D0000B9012901F216F4801804FF6FF717948A0
:1055E00001800846FBF724FC4FF4784169480180AC
:1055F0004FF6FF70FBF71CFC0020664908807248DC
:10560000006810216423A022CDE90010282108465B
:10561000FEF79AFA4FF4784214210846FFF7ABFDE3
:105620000020594981F820009FED680A084680ED66
:10563000090A53E2544840680A9001200A998847B1
:10564000514890F8200000F0C00040286FD10020A1
:105650000B904D4890F8200020F040004A4981F816
:1056600020000846818913AA129822F82010464883
:10567000C18A129802EB800041801298401CC0B28F
:1056800012901298012806D0022815D0032829D09C
:10569000042810D141E04FF6FF7214210846FFF7AD
:1056A0006AFD3E480088143880B24FF478421421D5
:1056B0000A90FFF760FDEBE338480088143880B2A9
:1056C0004FF6FF7214210A90FFF755FD33484088CA
:1056D000143880B24FF4784201460A901420FFF744
:1056E0004AFDD5E32D484088143880B24FF6FF724A
:1056F00001460A901420FFF73EFD284840881438E0
:1057000080B20A9025480088143880B24FF478425D
:1057100009900A99FFF72FFDBAE3BDF84C10BDF8C8
:105720005000081A0A90002802DB0A9802E0B0E351
:105730000A9840420F90BDF84E1013A8C088081A6E
:105740000A90002801DB0A9801E00A9840420E9076
:105750000F9840430F900E9840430E90DDE90E10D5
:105760000844059039F05CFCCDE906019DED060B7F
:1057700039F020FB8DED080B9DED080B51EC100B63
:1057800039F00AFC80B223E02400002058000020F9
:10579000590000201400002078313A00F002002067
:1057A00079313A0078323A0079323A0078333A0067
:1057B00079333A0078343A0079343A0066616320EC
:1057C00069733A0016000020381004080000000039
:1057D0001190BDF85400BDF85810401A0A900028E6
:1057E00001DB0A9801E00A9840420F9013A8418912
:1057F000C089081A0A90002801DB0A9801E00A987B
:1058000040420E900F9840430F900E9840430E90E8
:10581000DDE90E100844059039F002FCCDE90601DF
:105820009DED060B39F0C6FA8DED080B9DED080BCA
:1058300051EC100B39F0B0FB80B210909DED110AC5
:10584000F8EE400A9DED100AB8EE401A80EE810A8B
:105850008DED0A0A0A9839F029FFCDE90C019FED78
:10586000FE0B53EC102B9DED0C0B51EC100B39F093
:10587000EBFB0ED39FEDFA0B53EC102B9DED0C0BB5
:1058800051EC100B39F01AFD03D3119808B11098A0
:10589000F0BB00201290F4484088143880B20A907F
:1058A000F1480088143880B24FF6FF7209900A99C7
:1058B000FFF761FC4FF4784214210846FFF75BFCC8
:1058C0009FEDEA0B53EC102B9DED0C0B51EC100BE4
:1058D00039F0F6FBCDE908019DED080B51EC100BFA
:1058E00039F05AFB80B213A90A90C989BDF8582033
:1058F00013AB5B89CDE90132CDE90310BDF854004B
:10590000009013A8C0880990BDF85000089000E0EE
:105910000AE0BDF84E000790BDF84C00069007A9BC
:105920000EC9FFF796FDC3E2BDF84C10BDF8540058
:10593000081A0A90002801DB0A9801E00A98404200
:105940000F90BDF84E1013A84089081A0A9000283D
:1059500001DB0A9801E00A9840420E900F984043FC
:105960000F900E9840430E90DDE90E10084405900C
:1059700039F056FBCDE906019DED060B39F01AFA18
:105980008DED080B9DED080B51EC100B39F004FB6D
:1059900080B21190BDF85010BDF85800081A0A9056
:1059A000002801DB0A9801E00A9840420F9013A8F2
:1059B000C188C089081A0A90002801DB0A9801E012
:1059C0000A9840420E900F9840430F900E98404323
:1059D0000E90DDE90E100844059039F021FBCDE969
:1059E00006019DED060B39F0E5F98DED080B9DEDF7
:1059F000080B51EC100B39F0CFFA80B210909DEDEE
:105A0000110AF8EE400A9DED100AB8EE401A80EE39
:105A1000810A8DED0A0A0A9839F048FECDE90C0199
:105A20009FED8D0B53EC102B9DED0C0B51EC100BDF
:105A300039F00AFB0AD39FED8A0B53EC102B9DED36
:105A40000C0B51EC100B39F039FC48D200201290AD
:105A500085484088143880B20A90834800881438FA
:105A600080B24FF6FF7209900A99FFF784FB4FF45A
:105A7000784214210846FFF77EFB9FED7C0B53EC28
:105A8000102B9DED0C0B51EC100B39F019FBCDE9EF
:105A900008019DED080B51EC100B39F07DFA80B236
:105AA00013A90A90C989BDF8582013AB5B89CDE9C9
:105AB0000132CDE90310BDF85400009013A8C0884E
:105AC0000990BDF850000890BDF84E000790BDF851
:105AD0004C00069007A90EC9FFF7BBFCE8E1BDF832
